:0E00000064002500030A64005E0B2C0B3D0B10
:10025800EA073A0B49023C004A023D00BC02430649
:10026800BD021C0229001D022A000008EA06000837
:1002780000086D006E000A023D0009023C001D02E4
:100288008E004307490B1C028D0003060008030C6F
:100298002C00970C2B00EB024F0BEC024F0B540B6E
:1002A800010C3C007D001C02ED010306AE021D029C
:1002B800EE013F0B7000710072007300C00C020069
:1002C800080C0600C705E704670447040705460449
:1002D8002604E80C2900030C2A00060911023F0035
:1002E80010023E001F02800F3C00800C9C00430758
:1002F8007F0B010C9E0003066606940B11023D005D
:1003080010023C00920CDC0132001D02330003068F
:10031800B302FF0CF3017000710027052706920B4A
:10032800110210014307A60B6606A40BA60B010CCD
:100338003C007D001C02F0010306B1021D02F10120
:1003480066069B0B13023F0012023E001F02800F3D
:100358003C00800C9C004307B30B230C9E00030752
:10036800FC0B13023F0012023E001F02800F3C00EC
:10037800800C9C004307C20BF00C9E000306FC0B8C
:1003880052023C0053023D00BC024306BD02080273
:10039800DC0129001D0203069D022A000509090245
:1003A8003E000A023F001F02800F3C00800C9C00A8
:1003B8004307E00B060C9E000307F90B08023C00FC
:1003C8007D0013023F0012023E001F02800F2F0023
:1003D8001D02800F8F004307F30B1C029E000306CB
:1003E800F70B4605FA0B4604FD0B46042604720B70
:0603F80046052605720B0C
:021FFE00EBFFF7
:00000001FF
