:0E00000064002500030A64005C0B2A0B3B0B16
:10025400EA07380B49023C004A023D00BC0243064F
:10026400BD021C0229001D022A000008EA0600083B
:1002740000086D006E000A023D0009023C001D02E8
:100284008E004307470B1C028D0003060008030C75
:100294002C00970C2B00EB024D0BEC024D0B520B78
:1002A400010C3C007D001C02ED010306AE021D02A0
:1002B400EE013D0B7000710072007300C00C02006F
:1002C400080C0600C705E70467044704070546044D
:1002D4002604E80C2900030C2A00060911023F0039
:1002E40010023E001F02800F3C00800C9C0043075C
:1002F4007D0B010C9E0003066606940B460526053D
:1003040011023D0010023C00920CDC0132001D027F
:1003140033000306B302FF0CF301700071002705DC
:100324002706920B100211014307A60B6606A40BC5
:10033400A60B010C3C007D001C02F0010306B10277
:100344001D02F10166069B0B13023F0012023E00E0
:100354001F02800F3C00800C9C004307B30B230C4E
:100364009E000307FC0B13023F0012023E001F0213
:10037400800F3C00800C9C004307C20BF00C9E00D5
:100384000306FC0B52023C0053023D00BC02430630
:10039400BD020802DC0129001D0203069D022A0099
:1003A400050909023E000A023F001F02800F3C00BB
:1003B400800C9C004307E00B100C9E000307F90B14
:1003C40008023C007D0013023F0012023E001F029F
:1003D400800F2F001D02800F8F004307F30B1C02B8
:1003E4009E000306F70B4605FD0B4604FA0B460573
:0A03F4002605700B46042604700B6A
:021FFE00EBFFF7
:00000001FF
