:0C00000064002500030A64008A0B690BF1
:1002D2006D006E000A023D0009023C001D028E0004
:1002E2004307750B1C028D0003060008030C2C004B
:1002F200970C2B00EB027B0BEC027B0B800B010CAF
:100302003C007D001C02ED010306AE021D02EE015F
:100312006B0B7200730070007100C00C0200080CBD
:100322000600C705E704670447040705F40C290023
:10033200010C2A00050946052604F40C2900010CCB
:100342002A00050946042605F40C2900010C2A009E
:10035200050946052604F40C2900010C2A000509AA
:100362004604260513023F0012023E001F02800FC0
:100372003C00800C9C004307C00B010C9E0003064E
:100382006606CE0B13027100F10112027000F00139
:100392007200730027052706CC0B130212014307D4
:1003A200E00B6606DE0BE00B010C3C007D001C023C
:1003B200F2010306B3021D02F3016606D50B080221
:1003C2003C007D0011023F0010023E00880CDE015D
:1003D2003E001F023F000306BF02FF0CFF011F0287
:1003E200800F2F001D02800F8F004307FA0B1C02A3
:0C03F2009E000306B10B46052604B30B69
:021FFE00EBFFF7
:00000001FF
