:0E00000064002500030A6400F10ABF0AD00A5A
:10017E00EA07CD0A49023C004A023D00BC02430692
:10018E00BD021C0229001D022A000008EA06000812
:10019E0000086D006E000A023D0009023C001D02BF
:1001AE008E004307DC0A1C028D0003060008030CB8
:1001BE002C00970C2B00EB02E20AEC02E20AE70A93
:1001CE00010C3C007D001C02ED010306AE021D0277
:1001DE00EE01D20A7400750076007700000C3C0028
:1001EE00000C3D00000C3E00000C3F001F023300CF
:1001FE001E0232001D0231001C023000C00C020033
:10020E00080C0600C705E704670447040705460403
:10021E002604E80C2900030C2A00060915023F00EB
:10022E0014023E001F02800F3C00800C9C0043070E
:10023E00220B010C9E0003066606390B46052605A9
:10024E0015023D0014023C00920CDC0136001D022A
:10025E0037000306B702FF0CF7017400750027057F
:10026E002706370B1402150143074B0B6606490B85
:10027E004B0B010C3C007D001C02F4010306B50281
:10028E001D02F5016606400B17023F0016023E00E6
:10029E001F02800F3C00800C9C004307580B230C60
:1002AE009E000307FC0B17023F0016023E001F02C2
:1002BE00800F3C00800C9C004307670BF00C9E00E7
:1002CE000306FC0B56023C0057023D00BC024306DF
:1002DE00BD020802DC0129001D0203069D022A0050
:1002EE00050909023E000A023F001F02800F3C0072
:1002FE00800C9C004307850B1F0C9E000307970B79
:10030E00100C3C00270C3D00000C3E00000C3F0082
:10031E001F0233001E0232001D0231001C0230008B
:10032E00FF0CF001FF0C0307F101FF0C0307F201B4
:10033E00FF0C0307F301F307B40B000C3C00000C99
:10034E003D00000C3E00000C3F001F0233001E0259
:10035E0032001D0231001C02300056023C005702D2
:10036E003D00BC024306BD020802DC0129001D024D
:10037E0003069D022A00050909023E000A023F00FB
:10038E001F02800F3C00800C9C004307D00B100C0A
:10039E009E000306F306F90B13024307E20B12024B
:1003AE004307E20B11024307E20B010C90004307D7
:1003BE00E00B0307F90B08023C007D0017023F001B
:1003CE0016023E001F02800F2F001D02800F8F00AD
:1003DE004307F30B1C029E000306F70B4605FD0BAD
:1003EE004604FA0B46052605150B46042604150B86
:021FFE00EBFFF7
:00000001FF
