:0E00000064002500030A6400630B310B420B01
:10026200EA073F0B49023C004A023D00BC0243063A
:10027200BD021C0229001D022A000008EA0600082D
:1002820000086D006E000A023D0009023C001D02DA
:100292008E0043074E0B1C028D0003060008030C60
:1002A2002C00970C2B00EB02540BEC02540B590B55
:1002B200010C3C007D001C02ED010306AE021D0292
:1002C200EE01440B7300700071007200C00C02005A
:1002D200080C0600C705E70467044704070546043F
:1002E2002604E80C2900030C2A0006091002430622
:1002F200900B130243076606900B10023D00130297
:100302003C00920CDC0131001D0232000306B202F5
:10031200FF0CF20170007300270527068E0B1002F6
:100322004307A60B13024307A60B6606A40BA60BF4
:10033200010C3F001F02F30113024307A40B010C3F
:100342003F001F02F0016606990B12023F001102E4
:100352003E001F02800F3C00800C9C004307B30B41
:10036200230C9E000307FC0B12023F0011023E0009
:100372001F02800F3C00800C9C004307C20BF00C54
:100382009E000306FC0B51023C0052023D00BC02DF
:100392004306BD020802DC0129001D0203069D027C
:1003A2002A00050909023E000A023F001F02800FCF
:1003B2003C00800C9C004307E00B100C9E000307DE
:1003C200F90B08023C007D0012023F0011023E00C0
:1003D2001F02800F2F001D02800F8F004307F30BB7
:1003E2001C029E000306F70B4605FD0B4604FA0BA2
:0C03F20046052605770B46042604770B11
:021FFE00EBFFF7
:00000001FF
